:020000040000fa
:10000000f8ff03207dcf0200ef750200c78b0200ce
:10001000dfad0200dfb202004bcc020000000000a6
:10002000000000000000000000000000f36d02006e
:1000300077a3020000000000f36d0200f36d0200e0
:10004000f36d0200f36d0200f36d0200f36d020028
:10005000f36d0200f36d0200f36d0200f36d020018
:10006000f36d0200f36d0200f36d0200f36d020008
:100070001d510300b9490300f36d0200f36d020046
:10008000f36d0200f36d0200b53b0300f36d020057
:10009000f36d0200f36d0200f36d0200f36d0200d8
:1000a000f9dc0000f36d0200f36d0200f36d020055
:1000b000f36d0200f36d0200f36d0200a7870300e9
:1000c000b1870300f36d0200f36d0200f36d0200cf
:1000d000f36d0200f36d0200f36d0200f36d020098
:1000e000f36d0200f36d020000000000000000004c
:1000f00000000000f36d0200f5f60100f5f60100c6
:10010000f5f60100f5f60100790f0300790f030001
:10011000790f0300790f0300f36d0200f36d020005
:10012000f36d0200f36d0200f36d0200f36d020047
:10013000f36d0200f36d0200f36d0200f36d020037
:10014000f36d0200f36d0200f36d0200f36d020027
:10015000f36d0200f36d0200f36d0200f36d020017
:10016000f36d0200f36d0200f36d0200f36d020007
:10017000f36d0200f36d0200f36d0200f36d0200f7
:10018000f36d0200f36d0200f36d0200f36d0200e7
:100190008d5b0300f36d0200f36d0200f36d02004e
:1001a000f36d0200f36d0200f36d0200f36d0200c7
:1001b000f36d0200f36d0200f36d0200f36d0200b7
:1001c000f36d0200f36d0200f36d0200f36d0200a7
:1001d000f36d0200f36d0200f36d0200f36d020097
:1001e000f36d0200f36d0200f36d0200195d030070
:1001f000a1980100f36d0200f36d0200f36d02009f
:10020000f36d0200f36d0200f36d0200f36d020066
:10021000f36d0200f36d0200f36d0200f36d020056
:10022000f36d0200f36d0200f36d0200f36d020046
:10023000f36d0200f36d0200f36d0200f36d020036
:10024000f36d0200f36d0200f36d0200f36d020026
:10025000f36d0200f36d0200f36d0200f36d020016
:04026000f36d020038
:020000040000fa
:10026400f8b500bff8bc08bc9e4670475937030078
:10027400f8b500bff8bc08bc9e467047353703008c
:020000040000fa
:08028400ec5b01000100000029
:020000040000fa
:10028c00b8fb00201c00000000000000300401201e
:10029c00010000000000000090040120d4000000c8
:1002ac0001000000600c03000000000000000000d2
:1002bc000000000000000000000000000000000032
:1002cc000000000000000000000000000000000022
:1002dc000000000000000000000000000000000012
:1002ec000000000000000000000000000000000002
:1002fc0000000000000000000000000000000000f2
:10030c0000000000000000000000000000000000e1
:10031c0000000000000000000000000000000000d1
:10032c0000000000000000000000000000000000c1
:10033c0000000000000000000000000000000000b1
:10034c0000000000000000000000000000000000a1
:10035c000000000000000000000000000000000091
:10036c000000000000000000000000000000000081
:10037c0000000000000000008d04012001000000be
:10038c0001000000ff000000e482002004000000d7
:10039c000000000038f40020800000000000000085
:1003ac00a8f800204400000000000000e8820020b3
:1003bc00d0110000000000002c04012001000000fe
:1003cc000000000094ee002004000000000000007b
:1003dc004cfc0020100000000000000080ec00200d
:1003ec000c01000000000000b7fb00200100000021
:1003fc000000000034f400200400000000000000a5
:10040c0070f7002050000000000000000cf70020e6
:10041c00040000000000000030f10020a4000000e7
:10042c000000000038f600207400000000000000fe
:10043c0060fc00201000000000000000d0dd002057
:10044c00180200000000000014f3002090000000cf
:10045c00000000001cd900208002000000000000f9
:10046c002cf90020040000000000000034fb0020e8
:10047c0004000000000000005cfc002004000000f0
:10048c00000000004cfd00200400000000000000f3
:10049c00280001201800000000000000e0fc0020f3
:1004ac000c00000000000000f0fb00201800000011
:1004bc0000000000d4fb00201c0000000000000025
:1004cc0040000120040000000000000049fc002056
:1004dc0001000000000000004400012004000000a6
:1004ec0000000000d8050120040000000200fffffe
:1004fc00640501202800000001000000bb0103007e
:10050c00d10101004b020100330203007c02030005
:10051c00dd030300de030300e0030300e10301003d
:10052c00b322010008fc00201800000000000000ad
:10053c00480001200c0000000000000016040120ff
:10054c000200000000000000540001200400000024
:10055c0000000000c8be0020d00700000000000012
:10056c0058000120100000000000000018040120b9
:10057c0002000000000000006800012008000000dc
:10058c000000000038fc00201100000000000000fa
:10059c0098fb00201f0000000000000070000120ec
:1005ac0004000000000000001a04012002000000fa
:1005bc00000000007400012010000000000000008a
:1005cc001c04012002000000000000008400012037
:1005dc0008000000000000001e04012002000000c2
:1005ec00000000008c000120100000000000000042
:1005fc00150401200100000000000000dc050120b2
:10060c000400000001000000640000009c000120b8
:10061c001000000000000000ecfc00200c000000aa
:10062c000000000070fc0020100000000000000022
:10063c002d04012001000000000000002004012016
:10064c000400000000000000ac00012004000000c9
:10065c000000000080fc00201000000000000000e2
:10066c00b00001200c0000000000000028fd00205c
:10067c000a00000000000000bc0001201c0000006b
:10068c000000000024040120020000000000000013
:10069c00d800012008000000000000002e040120fa
:1006ac00010000000000000060f80020480000007d
:1006bc0000000000d0050120060000000200ffff32
:1006cc00e00001200c0000000000000026040120c6
:1006dc000400000000000000ec0001200c000000f1
:1006ec00000000002f0401200100000000000000a9
:1006fc00f8000120040000000000000098ef00202a
:10070c00d800000000000000e8f9002034000000d0
:10071c0000000000fc0001200400000000000000ac
:10072c003104012001000000000000000001012044
:10073c000400000000000000eccc0020400600008b
:10074c0000000000f8fc0020180000000000000071
:10075c00a4f3002090000000000000000401012020
:10076c000c000000000000009cdb002034020000a4
:10077c000000000068e70020680100000000000095
:10078c0032040120010000000000000038fb0020b2
:10079c0060000000000000002a040120020000009c
:1007ac0000000000330401200100000000000000e4
:1007bc001cfa00202c00000000000000c89e002045
:1007cc000010000000000000ecf8002040000000c9
:1007dc000000000034fd00201000000000000000ac
:1007ec00100101200400000000000000340401206e
:1007fc000100000000000000c8ae0020000800004e
:10080c00000000001401012008000000000000009e
:10081c0070f00020c00000000000000044fd00202b
:10082c00080000000000000010fd00200c0000007b
:10083c0000000000c8b60020000800000000000006
:10084c003504012002000000000000001c01012002
:10085c00080000000000000030f9002040000000fb
:10086c0000000000d4f10020a000000000000000f7
:10087c009e050120020000000100000001000000a4
:10088c0024010120100000000000000037040120aa
:10089c0001000000000000008ced002008010000a9
:1008ac000000000074fa0020280000000000000086
:1008bc00ecfa0020240000000000000034010120ac
:1008cc00040000000000000010fb002024000000c9
:1008dc00000000008c050120120000000100000047
:1008ec0030303a30343a32353a30313a30323a30bc
:1008fc0033000000a00501201000000001000000e2
:10090c00010100002d050300a535030000000100c6
:10091c00acf600206000000000000000380101204f
:10092c000800000000000000140401200100000079
:10093c000000000000000020e45e00000000000049
:10094c00400101200c00000000000000b8940020c1
:10095c00100a00000000000098c600205406000099
:10096c00000000003804012002000000000000001c
:10097c004c0101200c0000000000000050fd002084
:10098c0008000000000000005801012004000000d5
:10099c000000000048fa00202c00000000000000bd
:1009ac005c010120040000000000000058fd002044
:1009bc00080000000000000060010120040000009d
:1009cc00000000003a0401200700000000000000b5
:1009dc009cfa0020280000000000000064010120a7
:1009ec000400000000000000410401200100000090
:1009fc000000000060fd0020080000000000000066
:100a0c0068010120080000000000000042040120e1
:100a1c00050000000000000068fd00200800000038
:100a2c00000000004704012002000000000000004c
:100a3c0070fd00201000000000000000700101207b
:100a4c000400000000000000490401200200000026
:100a5c000000000080fd00200800000000000000e5
:100a6c007401012004000000000000004b04012070
:100a7c0001000000000000007801012008000000c7
:100a8c00000000004c0401200100000000000000e8
:100a9c002206012003000000010000000807ff00ef
:100aac002cd30020ee050000000000008001012086
:100abc000c000000000000001000012006000000e7
:100acc0000000000250601200100000001000000cc
:100adc0001000000e8df0020000200000000000020
:100aec001ad90020020000000000000032fd002096
:100afc0002000000000000008c0101200400000036
:100b0c00000000004d040120010000000000000066
:100b1c00900101200400000000000000d605012017
:100b2c000200000001000000be1500008e04012030
:100b3c000200000001000000ffff000094010120f2
:100b4c00200000000000000020fc00201800000025
:100b5c0000000000b40101200400000000000000af
:100b6c0088fd0020200000000000000010f700208d
:100b7c00600000000000000090fc0020100000004d
:100b8c00000000004e0401200200000000000000e4
:100b9c00a0fc00201000000000000000a8fd0020b8
:100bac001800000000000000b80101200400000043
:100bbc0000000000500401200200000000000000b2
:100bcc00c0fd0020080000000000000052040120bd
:100bdc000200000000000000d0e8002040010000ee
:100bec0000000000bc010120080000000000000013
:100bfc00540401200100000000000000c401012089
:100c0c000800000000000000550401200100000055
:100c1c0000000000cc0101200400000000000000d6
:100c2c00560401200200000000000000c8fd002056
:100c3c00200000000000000058040120010000000a
:100c4c0000000000e8fd002008000000000000008b
:100c5c00590401200100000000000000b005012033
:100c6c00100000000100000000000028000000003f
:100c7c0028000000000000002606012001000000f2
:100c8c000100000002000000e0050120040000004b
:100c9c0001000000200000002706012001000000d8
:100cac000100000001000000f0fd00201800000011
:100cbc0000000000b0fc002010000000000000004c
:100ccc0008fe00200800000000000000d0010120f8
:100cdc00200000000000000010fe0020600000005a
:100cec00000000005a040120010000000000000078
:100cfc00f0010120080000000000000070fe002040
:100d0c000800000000000000f801012004000000b1
:100d1c000000000078fe0020100000000000000021
:100d2c005b0401200100000000000000fc01012018
:100d3c00080000000000000088fe002010000000e9
:100d4c00000000005c040120020000000000000014
:100d5c000402012008000000000000005e040120d5
:100d6c00010000000000000098fe002008000000b8
:100d7c00000000005f0401200300000000000000e0
:100d8c00a0fe00200800000000000000e45e00202f
:100d9c0000240000000000000c02012004000000f0
:100dac0000000000a8fe0020080000000000000069
:100dbc00100201200800000000000000b0fe00201e
:100dcc0008000000000000001802012004000000d0
:100ddc000000000098ee0020000100000000000060
:100dec001c0201200800000000000000b8f40020e4
:100dfc008000000000000000e40501200800000055
:100e0c000100000020000000040000002806012062
:100e1c00010000000100000001000000ec050120b1
:100e2c00080000000100000088130000c80000004a
:100e3c002906012001000000010000000100000053
:100e4c00c0fc0020100000000000000038f500205d
:100e5c00800000000000000062040120010000007e
:100e6c0000000000e8e1002000020000000000008b
:100e7c00b8fe002008000000000000002402012041
:100e8c000800000000000000c4fa00202800000048
:100e9c00000000002c0201200400000000000000f3
:100eac00e8e300200002000000000000c0fe00206b
:100ebc000800000000000000f40501200400000000
:100ecc0001000000485f030018060120020000002a
:100edc0001000000010000002a06012001000000b2
:100eec0001000000010000001a06012006000000ad
:100efc00010000000100ffffffff0000c0f7002011
:100f0c0050000000000000006304012001000000fc
:100f1c00000000001600012002000000000000008c
:100f2c00300201200800000000000000c8fe002074
:100f3c002800000000000000380201202c000000f6
:100f4c0000000000f0fe002008000000000000007f
:100f5c006402012004000000000000006404012071
:100f6c0001000000000000006802012004000000e5
:100f7c0000000000650401200100000000000000da
:100f8c006c0201200400000000000000f8fe0020ac
:100f9c001800000000000000700201200800000092
:100fac0000000000660401200100000000000000a9
:100fbc0078020120080000000000000010ff002053
:100fcc00080000000000000067040120030000007e
:100fdc00000000008002012004000000000000005e
:100fec006a040120010000000000000018ff00202e
:100ffc0008000000000000006b040120030000004a
:10100c00000000008402012010000000000000001d
:10101c0020ff002010000000000000006e040120e2
:10102c00010000000000000030ff0020080000005c
:10103c00000000006f04012001000000000000000f
:10104c009402012008000000000000007004012040
:10105c0001000000000000009c02012004000000c0
:10106c0000000000710401200100000000000000dd
:10107c001e0001200200000000000000a002012060
:10108c00040000000000000038ff002018000000e1
:10109c0000000000a4020120040000000000000079
:1010ac0050ff002008000000000000007204012026
:1010bc000100000000000000a80201200400000054
:1010cc000000000058ff0020080000000000000095
:1010dc00ac02012004000000000000007304012099
:1010ec00010000000000000060ff0020080000006c
:1010fc0000000000b002012004000000000000000d
:10110c00e8e500208001000000000000b40201208e
:10111c00040000000000000068ff00200800000030
:10112c0000000000b80201200800000000000000d0
:10113c0070ff002008000000000000007404012073
:10114c000100000000000000c00201201800000097
:10115c000000000078ff00201800000000000000d4
:10116c00d80201200400000000000000f805012056
:10117c000800000001000000d0070000e803000098
:10118c00c0050120080000000200ffff000601203e
:10119c000800000001000000320000008000000088
:1011ac0008060120040000000200ffff7504012066
:1011bc000100000000000000dc0201200c00000017
:1011cc0000000000260001200200000000000000ca
:1011dc00e80201200c000000000000004afc002086
:1011ec0002000000000000000404012002000000c6
:1011fc000000000074f20020a000000000000000bd
:10120c00f40201200c000000000000000604012084
:10121c000200000000000000760401200100000024
:10122c000000000090ff00200800000000000000fb
:10123c0000030120040000000000000077040120de
:10124c00010000000000000098ff002008000000d2
:10125c000000000004030120040000000000000056
:10126c00780401200200000000000000a0ff002014
:10127c0008000000000000007a04012001000000ba
:10128c00000000000803012008000000000000001e
:10129c007b0401200200000000000000100301206c
:1012ac0004000000000000007d040120010000008b
:1012bc0000000000140301201000000000000000da
:1012cc007e0401200100000000000000a8ff0020a7
:1012dc0008000000000000002403012004000000ae
:1012ec0000000000080401200200000000000000c3
:1012fc00280301200800000000000000b0ff0020bf
:10130c000800000000000000300301200400000071
:10131c0000000000b8ff00200800000000000000e2
:10132c007f040120010000000000000034030120b4
:10133c000400000000000000c0ff002008000000b6
:10134c0000000000380301200c0000000000000029
:10135c00c8ff00200800000000000000440301202a
:10136c000400000000000000d0ff00200800000076
:10137c00000000002b06012001000000010000000d
:10138c00010000000c060120040000000200ffff19
:10139c004803012008000000000000008004012028
:1013ac0001000000000000005003012010000000ac
:1013bc00000000000a0401200200000000000000f0
:1013cc0081040120010000000000000060030120e6
:1013dc000400000000000000820401200200000054
:1013ec0000000000640301200c000000000000005d
:1013fc0010ea0020700200000000000070030120c1
:10140c000400000000000000d8ff002008000000cd
:10141c000000000074030120080000000000000020
:10142c002c0601200100000001000000010000005a
:10143c007c030120080000000000000070f900206f
:10144c00780000000000000084030120340000003c
:10145c00000000000c04012004000000000000004b
:10146c008404012001000000000000001004012091
:10147c0002000000000000008504012001000000b3
:10148c000000000018000120060000000000000011
:10149c00b80301200400000000000000e0ff002061
:1014ac000800000000000000bc0301200800000040
:1014bc0000000000e8ff0020080000000000000011
:1014cc00c403012004000000000000008604012079
:1014dc0001000000000000002000012006000000b8
:1014ec000000000087040120010000000000000043
:1014fc00120401200200000000000000d0fc0020bb
:10150c001000000000000000c803012004000000cf
:10151c0000000000f0ff00200800000000000000a8
:10152c002d06012001000000010000000100000058
:10153c00200601200200000001000000ffff000057
:10154c00b8f5002080000000000000008804012095
:10155c000100000000000000f8ff0020080000005f
:10156c0000000000cc03012004000000000000007b
:10157c00000001200800000000000000d003012042
:10158c000800000000000000890401200100000098
:10159c0000000000d803012004000000000000003f
:1015ac0010060120040000000100000032000000c1
:1015bc002e060120020000000100000001010000c5
:1015cc00c805012008000000010000000100000017
:1015dc0000000000dc0301200800000000000000f7
:1015ec000800012008000000000000008a0401200f
:1015fc000100000000000000e403012008000000ce
:10160c00000000008b04012002000000000000001c
:10161c00ec0301200c000000000000001406012067
:10162c00040000000100000001000000f80301208c
:10163c00040000000000000010f800205000000022
:10164c0000000000fc03012004000000000000006a
:10165c000004012004000000000000001cfd00201c
:10166c000c00000000000000000000000000000062
:10167c0066666666666666666666666666666666fe
:020000040000fa
:04168c000120704782
:020000040000fa
:101690002de9f04fa9b005460c46022840f32682fa
:1016a0009b49606836f0dbfa002800f0a580032d26
:1016b00041f307809749606836f0d1fa002800f0be
:1016c000e6809549606836f0cafa002800f0cc81bf
:1016d00066689249304636f0c2fa002800f00e8261
:1016e0008f49304636f0bbfa002800f00f828d4952
:1016f000304636f0b4fa002840f0e482022d1cddba
:10170000a6688949304636f0aafa002800f01e8201
:101710008649304636f0a3fab0fa80f67609032df2
:1017200040f31c82e06831f0d8fc0146431e622b76
:1017300000f20e8230462df02ffe7d4b18787d4b47
:101740001b6800937c4b1b687c4a7d49002808bfbe
:101750000a467c4900202df053f97b4bd3e9003435
:10176000cde90a34234306d0784bd3e9006756ea23
:10177000070340f0f681764900202df041f9754bc2
:101780001b680593744b1b680493744b1b6803938d
:10179000734b1b680293734b1b68019300200090ee
:1017a000714b1b68714a126871492df029f9714b10
:1017b000d3e90045b5f1ff3f08bfb4f1ff3f00f0aa
:1017c00047826d4b1e6850a3d3e90023204629466b
:1017d00034f086f8cde902234ba3d3e90023204659
:1017e000294634f07df8cde90001324663490020f6
:1017f0002df006f9012483e000221146a06836f09e
:1018000009fc0646032d0adc012512a831f020fe52
:10181000044658b95a492df0f3f8012470e000222b
:101820001146e06836f0f6fb85b2eee7554b1968d5
:101830000131196000237001f70e801b67eb03076d
:101840007a0242ead0524fea402e17461eeb0600bb
:1018500043eb07074fea871e4eea906e8201101a8b
:101860006eeb0707801947eb0303129a821813984f
:1018700040eb030328461ff0c1fa2df0c3fd009092
:1018800033462a46404900202df0baf838e0a068d7
:1018900028f064f906460f4600221146e06836f04b
:1018a000b9fb8046042d14dc4ff00109002200230f
:1018b000cde9102356ea070313d0b8f1000f1ad070
:1018c00010a831f0c5fd002868d130492df098f8f6
:1018d00015e000221146206936f09cfb1ffa80f9c2
:1018e000e4e7a2682a4900202df08af8294900205f
:1018f0002df086f803e0284900202df081f801241e
:10190000204629b0bde8f08f00ca9a3b00000000d5
:101910001c45000064450000a44600001447000078
:101920003047000050470000f443000034470000f7
:1019300073040120ac02012000060120d443000002
:10194000e44300008447000048ff002088ff002097
:10195000184800009c02012070020120d4020120de
:10196000d0020120b002012098020120940201203f
:1019700040480000c005012038020120084900004d
:1019800024450000d80201203c450000004600002c
:101990006c45000094450000c44500001098b24b0f
:1019a000c01811994ff0000343eb010132463b464a
:1019b000801947eb010133f093ff00fb07f301fbb4
:1019c0000631a0fb06450d44a84b1968013119608a
:1019d000cdf81080cde9024500220023cde9002397
:1019e00032463b46484618f081fa82464a46a049ac
:1019f00000202df005f8304639462ef007fda8fbf3
:101a0000062308fb0733171943eb050650462df054
:101a1000f9fc089092a3d3e900233846314633f00d
:101a20005fffcde906238ea3d3e900233846314674
:101a300033f056ffcde9040189a3d3e90023204602
:101a4000294633f04dffcde9022385a3d3e90023d6
:101a50002046294633f044ffcde90001424685493e
:101a600000202cf0cdff4ae7a06828f077f8064662
:101a70000f46032d0edc012556ea070311d1a2689b
:101a80007d4900202cf0bcff7c4900202cf0b8ffe1
:101a9000012435e700221146e06836f0bbfa85b232
:101aa000eae7774b19680131196000240494002299
:101ab0000023cde90223cde9002332463b462846e8
:101ac00018f014fa80462a466e4920462cf098fffa
:101ad000304639462ef09afc40462df093fc0246e3
:101ae000694920462cf08cff012409e702283ff4c5
:101af000efad022d00f0ef80002401e72af014fb87
:101b0000624900202cf07cff0124f9e6022d0edd55
:101b1000a4685f49204636f0a2f8a8b15d49204686
:101b200036f09df8b0fa80f040095b4b18705a4bc4
:101b300019785a4a5a4b002908bf1a4659490020b9
:101b40002cf05eff0124dbe60120eee70126e6e54e
:101b5000554900202cf054ff0124d1e6534b19685d
:101b6000e8e5534bd3f80080d3f804904fea89039b
:101b70004fea880043ea987110eb080041eb090135
:101b8000cb0043ea5073c200b2eb080063eb0901db
:101b90000b0143ea1073020112eb080043eb090149
:101ba0000b0143ea1073020110461946dde90a45ac
:101bb00022462b4633f094fe82466b01600143ead5
:101bc000d461001b61eb05018b0043ea9073820036
:101bd00019461019cde90a4545eb0101cb0043ea4e
:101be0005073c2001046194632463b4633f078fe29
:101bf0000546304ba3fb0a235b09642202fb13a2b8
:101c0000039202934fea49134fea481043ead8611e
:101c1000b0eb080061eb09018b0043ea907382008e
:101c200012eb080043eb0901cb0043ea5073c200fa
:101c30001046194632463b4633f052fe0190cdf82d
:101c400000802b460a9a1c4900202cf0d9fe96e50c
:101c50001a4b1a681a4900202cf0d2fe01244fe6d4
:101c600000ca9a3b00000000ffc1eb0bf805012001
:101c700038460000544600006c450000a8460000ad
:101c8000fc050120e4460000044700001c4700005a
:101c9000f4430000344700006c040120a843000016
:101ca000bc430000384700005847000000060120f0
:101cb00060ff00201f85eb51bc4700003802012067
:101cc000dc480000022d7ff714afb249606835f0a0
:101cd000c6ff002839d06668af49304635f0bfffef
:101ce000002840f0d580032d57dc032d00f08a80ba
:101cf000aa4c01260025aa49204635f0b0ff00284d
:101d000000f0aa80a749204635f0a9ff002800f07e
:101d1000a380a549204635f0a2ff002840f0b180fd
:101d2000a24b53f825300421187833f041f90028ec
:101d300050d09f4a0123ab4011780b4313709d4b49
:101d400000200021c3e900016ce0a5689a492846fb
:101d500035f085ffe8b19949284635f080ffb0faa3
:101d600080f0400929f0ccf9a4689349204635f069
:101d700076ff80b19149204635f071ff8e4a884b3d
:101d8000002818bf1a468e4900202cf039fe012485
:101d9000b6e50120e6e7884af5e700221146e0684b
:101da00036f038f90646451e012d24d8a46882492c
:101db000204635f054ff28b18049204635f04fffca
:101dc000002898d1794b53f825300421187833f046
:101dd000eff8d0b9754b53f825301c78204636f013
:101de0001ffa30f087ff03462246764900202cf088
:101df00007fe012484e50246734900202cf000fe12
:101e000001247de501260025d0e7694a012101fa78
:101e100005f0137823ea00031370644b53f8250090
:101e200033f0e0f8614b53f825301a78604b1b789b
:101e3000eb4013f0010f5c4b18bf1c46019400925d
:101e4000624a634b002d08bf1346324661490020a9
:101e50002cf0d6fd012453e55549012303fa05f280
:101e60000b7823ea02030b70504f002157f825002e
:101e700033f0b8f857f825300421187835f0e8fa2f
:101e8000d0e72246544900202cf0bafd012437e562
:101e90005249304635f0e3fe70b35149304635f0d3
:101ea000defe002849d1022d43dda6684d493046ab
:101eb00035f0d5fe20b34c49304635f0d0fe002831
:101ec00037d1032d0edde4683b49204635f0c7fecf
:101ed000002800f0bf823949204635f0c0fe0028b6
:101ee00000f0b882002036f0fdfa2d4a3f4900206c
:101ef0002cf086fd012403e528f08afc0124ffe490
:101f0000032d0ddde4682c49204635f0a8fe70b1a4
:101f10002a49204635f0a3feb0fa80f0400900e0df
:101f2000012035f09ffd1ef0affb0124e8e4012005
:101f3000f7e71ef0a9fb0124e2e42d49304635f015
:101f40008efe002840f0aa83022d0bdd00221146f0
:101f5000a06836f05ff8a0f10802264b9a4212d82a
:101f6000254b1860244b1a68244900202cf048fdaa
:101f7000234bd3e90023134348d1224900202cf0fe
:101f80003ffd0124bce4204900202cf039fd012450
:101f9000b6e400bf3849000058490000fc43000087
:101fa000f84300008c4900001044000028ff002086
:101fb0006e04012030ff0020f4430000344700008d
:101fc0003c490000ec4900005c490000004400006e
:101fd00008440000cc490000904900000c4a000071
:101fe000144a0000184a0000204a0000244a000059
:101ff0003c4a000038420f0004060120904a0000cd
:1020000040ff0020d04a0000444a0000ac4b1b684f
:10201000ac4ad2e900455b08a3fb040103fb0511b0
:10202000a5a3d3e9002333f05bfc0246a6490020b8
:102030002cf0e6fca1e7a549a06835f010feb0fa47
:1020400080f35b09a24a13700028a24aa24b18bf72
:102050001a46a24ba249002818bf0b46a1490020ee
:102060002cf0cefc01244be414a825f0edfb9e4b94
:1020700018789e4b19789e4b9e4a002908bf13463c
:102080009d4a9e49002808bf0a469d4900202cf021
:10209000b7fc9df850009df85110bdf852300093e8
:1020a0008c4b8d4a012918bf1346964a9649002841
:1020b00008bf0a46954900202cf0a2fcdde9180172
:1020c0002ef0a4f9924900202cf09afc914b1b6849
:1020d00001931c9b00931b9b1a9a8f4900202cf0a4
:1020e0008ffc8e4b1b688e4a12688e4900202cf0a4
:1020f00087fc8d4b1b6802938c4b1b6801938c4ba8
:102100001b6800938b4b1b688b4a12688b4900201d
:102110002cf076fc8a4b1b68002b00f01882884b51
:102120001b68072b00f2ce81854b19680c461a6894
:102130000b46844900202cf063fc834900202cf0de
:102140005ffc002c40f0cb8101e2804bd3e90023ff
:10215000b9eb04006aeb050129f022f802467c493c
:1021600000202cf04dfc80e2239c2346794900207e
:102170002cf046fc1d9ee5171f9fddf878904fea76
:10218000e67b4fea4b1c73014cead6629b1b62eb69
:102190000b024fea820c4cea937c4fea830e1eeb53
:1021a00006004ceb0b01cb0043ea5073c200104613
:1021b000194622462b4628f0f3ff80464feae97b7a
:1021c0004fea4b1c4fea49134cead962b3eb0903bf
:1021d00062eb0b024fea820c4cea937c4fea830ecf
:1021e0001eeb09004ceb0b01cb0043ea5073c2001d
:1021f0001046194622462b4628f0d2ff0390cdf810
:1022000008904feae77a4fea4a1c7b014cead76212
:10221000db1b62eb0a024fea820c4cea937c4fea2a
:10222000830e1eeb07004ceb0a01cb0043ea507310
:10223000c2001046194622462b4628f0b1ff0190f5
:10224000009743463246444900202cf0d9fb209e9b
:10225000219fddf888b04ff0000a5a4653463046b9
:10226000394633f03dfb804689467a01730142eae4
:10227000d6619b1b61eb07018a0042ea93729800ca
:102280001146801947eb0101cb0043ea5073c200ad
:10229000104619465a46534633f022fb22462b4637
:1022a00033f01efbcde9000142464b462b49504618
:1022b0002cf0a6fbdde100bf00ca9a3b0000000045
:1022c0000406012040ff0020b84a0000dc4a00005c
:1022d000700401201844000058440000204400000d
:1022e000fc430000e44a00006c0401207204012059
:1022f000f4430000f8430000a8430000bc43000082
:10230000004b00006044000064440000204b0000cb
:10231000d04a000050020120544b0000400201202e
:1023200058020120a04b0000a4020120c00201209d
:10233000c4020120c8020120cc020120e84b0000a9
:10234000b4020120444c00007c4c000088ff0020b7
:102350007c4e0000b44e0000f04e0000344f0000f0
:10236000414a4249096801910092042240490020f3
:102370002cf046fb3f4b18783f4b1b683f4a4049c7
:10238000002808bf0a463f4900202cf039fb3e4b8d
:10239000d3e9002310461946002a73f1000449dbf3
:1023a0003a4cd4e90067002a73f10003384c394bea
:1023b000a8bf1c46384b1b68384a12680692384a38
:1023c0001268059204934ff47a72002333f088fa6e
:1023d000cde90201009432463b46324900202cf000
:1023e0000ffb314bd3e9000150ea010326d12f4bfb
:1023f0001c78e4b22e4b1d682e49d1e9006718a362
:10240000d3e90023d1e9000133f06afacde90223d0
:1024100013a3d3e900233046394633f061facde9fe
:1024200000012b462246244900202cf0e9fa012421
:10243000fff766ba504263eb4301b1e74ff47a729b
:10244000002333f04dfa02460b461c4900202cf0c5
:10245000d7facce7012036f045f8194a46e500bf27
:1024600000ca9a3b00000000a4440000740201204e
:10247000884f00006904012078020120d844000040
:10248000f0440000c84f000068ff002050ff00200b
:10249000144500001845000004060120b802012080
:1024a000bc0201200850000070ff002068040120d9
:1024b0008002012010ff00209050000064500000b6
:1024c000f4430000864b1a680823864900202cf04c
:1024d00097fa854900202cf093fa08231c46002621
:1024e000274600bf06eb4604804b03eb0414d4f8e8
:1024f00028c0d4e902abd4e90001cde90a01d4e94e
:102500000601d4e90423cde90c23d4e90689d4e9f2
:102510000823b8eb020469eb030504940595dde993
:102520000c45021b61eb050302920393dde90a01ee
:10253000baeb00026beb0103009201936346324653
:102540006b4900202cf05cfa0136be42cad3694bbd
:1025500019685868002301f001021343664b674a6b
:1025600008bf1346029300910190654b1a686549b4
:1025700000202cf045fa644b1a68644900202cf0c6
:102580003ffa634b1b680193624b1b680093624bdd
:102590001b68624a1268624900202cf031fa614bd4
:1025a0001968586844014a0144ead163521a63eb3e
:1025b00000039c0044ea9274950023466a1840eb9d
:1025c0000303d90041ea5271d00002460b46564936
:1025d000d1e9000128f0e4fd0346544a1268544949
:1025e00000202cf00dfa33f08bf881468a46514bcf
:1025f000d3e90045231a0e9365eb01030f934e4b6d
:102600001a784e4e4e4b002a08bf1e464d4b1a7884
:102610004a4f4b4b002a08bf1f464b4b19684b4a89
:102620004b4bb1f1ff3f0cbf904698463d4bd3e971
:102630000023dde90e0128f0b3fd02900e9b01930b
:10264000cdf800803b463246424900202cf0d8f9b4
:10265000414b1b784bb1414a4ff0ff33dde90e018e
:10266000904271eb0303fff670ad229a002a7ff4cb
:102670007bad3b4b1a683b4900202cf0c1f93a4b2b
:102680001b683a4a1278002a7ff46aae384a1078fa
:10269000384a3949002808bf0a4662e6022d06dd9d
:1026a0003649606835f0dbfa00283ff4c4ac3449a1
:1026b000606835f0d4fa00283ff4d6ac0024fff768
:1026c0001fb93049606835f0cafa00287ff400a8c5
:1026d000a06827f043fa06460f460125fff7ccb95c
:1026e000b4020120444c00007c4c0000e8e50020ce
:1026f000c44c000058ff0020684400007c440000e7
:1027000048020120f44c00004c020120484d00001a
:10271000d8fe0020e0fe0020d0fe00203002012084
:102720007c4d000088ff0020c8fe002034020120fc
:10273000e04d000078ff0020740401206044000098
:10274000644400006d040120080601209444000048
:102750009c440000204e000063040120402bfeff3b
:1027600064020120604f00007c0201206704012008
:102770006a040120ac440000cc440000d44a0000ac
:08278000f84a0000a446000025
:020000040000fa
:102788002de9f04f8db00f210a2033f053fd029050
:1027980010f0010f40f05d85029b13f0020f40f02e
:1027a8007c850db0bde8f08fd9f8187007f11002dc
:1027b800059213f4007f21d1fb6809933b690a93c2
:1027c80000228df82c2006238df82d30330a43ea99
:1027d8000623adf82e300c2109a82cf011fbc043bc
:1027e80083b2d9f8202012f0040f30d03246414687
:1027f80048462af061ff002840f09a8640462cf0af
:102808009bfe98f80ca04fea1a1a4fea8a03049321
:10281800d9f81ca0baf80220002a00f08c86fd899d
:10282800bb891d44baf800301d445540adb2c74bb2
:10283800d3f800c0bcf1000f00f08086d9f828e07a
:10284800c34b1b68039300239b4610460ee01a46b1
:10285800314640462cf0d4facde7b4f872208242d3
:102868002fd001331bb21c469c452fd9039a52f82e
:102878002440002cf5d094f876200b2af1d094f857
:1028880077100129edd8a16c09b18e45e9d1002a4c
:10289800e3d0b4f87220aa42e3d1daf80010226e2d
:1028a8009142ded1216cfa689142dad1012184f893
:1028b8007710c4f848e0059a204632f0e9f8a346b4
:1028c80022e0bbf1000f08bfa346cae7bbf1000f27
:1028d80000f08380fb68cbf8403001218bf877103b
:1028e800cbf848e0059a584632f0d2f8abf8725067
:1028f800baf80030abf86030baf80230abf86230a2
:10290800dbf80030cbf81030d9f8102093890499ff
:102918005b1a938198f80d40d8f80870d8f80450dd
:102928009bf83f3013f0400f5bd19bf875306ff385
:1029380000038bf875309bf87630002b69d0012b9b
:1029480000f09e801436049aa6eb020a1ffa8afa4f
:10295800aaf1140292b2059214f0010206921abf6b
:10296800aaf1130a1ffa8af2059a039214f0020fc9
:1029780003d0039a013292b20392dbf81c60dbf8b1
:1029880020209642c0f0aa80dbf81810dbf814006b
:10299800091aa6eb020aa1eb0a0a1ffa8af20492a4
:1029a800dbf85820a5eb020a039a002a00f0a98058
:1029b800049a002a00f0a080baf1000fc0f29680b5
:1029c8009245c0f0a780039a04998a1a8a45c0f2f2
:1029d800a180924540f39e808ee06ff00e0100f0da
:1029e80034bc00238bf879309bf83e3013f0020f8b
:1029f8009bd133f023fdbbf87020564b1b6803fbbb
:102a080002f3554aa2fb032300eb9310cbf82400f2
:102a18008be714f0040f1ad114f0100f1dd114f025
:102a2800020f27d00135cbf85850404626f06af8f7
:102a3800abf86a00584631f036f90122122158469f
:102a480009f078fe02238bf876300026e6e30021b1
:102a580058461df073fd0026e0e3cbf854700022c1
:102a68000421584609f066fe002158461df066fd0f
:102a78000026d3e3002158461df060fd0026cde373
:102a880014f0040f40f0c98314f0100f00f0a08573
:102a9800dbf85460b74205d114f0020f40f05585b9
:102aa8000026bbe3cbf8547001220421584609f0f4
:102ab80041fecbf854600026b0e333f0bffcbbf80e
:102ac8007020244b1b6803fb02f3234aa2fb032359
:102ad80000eb9313cbf8243000f056bda2eb060aa6
:102ae8000af1ff3a1ffa8af2049259e703990a4653
:102af800514400293ff768af14f0040f1fd0002697
:102b08008ce3baf1000f05d0baf1000ff4db049a98
:102b18009245f1da14f0060f20d114f0100f00f0ee
:102b28009083023b072b00f2cc81dfe813f02900e9
:102b38003e003e003e003e00ca013e00bd010122ab
:102b48001021584609f0f6fd002667e3e40001204d
:102b5800e0000120e8000120d34d621014f0040fba
:102b680008d09bf83f3043f002038bf83f304ff416
:102b7800006600e00026002158461df0dffc4de30a
:102b8800dbf85460b74205d103238bf876304ff455
:102b980080760be0cbf8547001220421584609f0e6
:102ba800c9fdcbf85460002638e30026dbf8101086
:102bb800dbf808305a1a13d4dbf854003b1a9b1a76
:102bc800002b1dddbbf8742002f40172042a01d128
:102bd800012b0cd000221021584609f0abfd1de353
:102be800dbf80430dbf800001b1a1a44e4e7013074
:102bf800cbf854009bf8753043f002038bf875301e
:102c0800dbf85430dbf80c20881a914249d2dbf803
:102c18000420dbf80010521afb1a0344d318079358
:102c2800002b07dddbf80430dbf800209b1a079a3d
:102c38009a4246d9dbf83830002b40f0a280dbf806
:102c48000c20dbf808309a4200f0d980b8f80e3032
:102c5800bbf86e209a4238bfabf86e30dbf85420d0
:102c6800b8f80e303b449b1a9bb2bbf8641031b9dc
:102c78002bb19bf83e1041f040018bf83e10abf8a9
:102c880064309bf87630042b00f0f080062b40f07f
:102c98001981974240f0c282002158461df04efc2f
:102ca800bce2fb1a03440793002b07dddbf8043072
:102cb800dbf800001b1a0798984202d99142bed04f
:102cc800b8e740f2dc53cbf8343033f0b7fbdbf82d
:102cd8003420c44b1b6803fb02f3c34aa2fb032343
:102ce80000eb9313cbf838309bf83e306ff3451365
:102cf8008bf83e30dbf80c10079b0b44cbf80c30fc
:102d0800dbf8102091420ed893421cd99a1adbf8ae
:102d180054100a44cbf85420cbf81030dbf80420c8
:102d2800934224d313e0dbf80410dbf80000091aff
:102d38000a44934207d99a1adbf854100a44cbf88c
:102d48005420cbf81030dbf80420934205d3dbf88d
:102d58000010511a5b1acbf80c30dbf81030934294
:102d680005d3dbf80010521a9a1acbf810209bf8fa
:102d78007630032b02d0082b7ff461af46f00406af
:102d88005de733f05bfbdbf83830c31a002bfff646
:102d980056afdbf834305b00b3f57a4f28bf4ff4f9
:102da8007a43cbf8343033f049fbdbf834208d4bd1
:102db8001b6803fb02f38c4aa2fb032300eb93136b
:102dc800cbf83830dbf81010dbf80c20881adbf869
:102dd80054301b1acbf85430914207d2dbf8041058
:102de800dbf80000091a5b1acbf85430cbf8102036
:102df8009bf83e3043f080038bf83e301fe79bf88a
:102e08003f3013f0010f19d113f0400f06d19bf892
:102e18003e306ff341038bf83e3017e733f00efb7b
:102e2800bbf870206f4b1b6803fb02f34ff47a72f8
:102e3800b3fbf2f30344cbf82430e8e7dbf8543073
:102e48009f427ff403af9bf8743013f0040f3ff4f4
:102e5800fdae9bf83e306ff341038bf83e309bf894
:102e68003f306ff300038bf83f30efe6974203d013
:102e780014f0200f35d0d1e19bf8743013f0040f13
:102e8800f6d033f0dbfa574b1a6841f2883303fb6c
:102e980002f34ff47a72b3fbf2f30344cbf8303009
:102ea80005238bf87630e3e7dbf8543001339f4293
:102eb80001d00026b2e1002158461df03ffb002654
:102ec800ace1002614f0200f40f0a8819bf8762092
:102ed800a2f10803dbb2012b40f2a081062a00f020
:102ee8009d81059a002a3fd0baf1000f7edd059b2f
:102ef8005344049a934203dda2eb0a039bb2059361
:102f080098f80c301b0908eb83030893dbf81c10b6
:102f1800dbf81830059a52440a44934280f0f48052
:102f28005a1a0132b2eb0a0200f1df801ffa82f866
:102f380001240094434608a80246514448462bf011
:102f480065f90490059aa2eb080300949bb208aabd
:102f5800dbf8141048462bf059f9049b034498b247
:102f6800059b834200f0d980039bcbb19bf8763058
:102f7800033bdbb2022b84bfdbf81c30cbf82030dc
:102f88009bf83e3013f0100f40f0fa809bf83e306b
:102f980043f010038bf83e3013f0080f00f0f68072
:102fa800069b002b00f03a81dbf858300133039a76
:102fb8002a44934240f03281cbf8583046f4806678
:102fc8009bf83f3043f004038bf83f309bf8763092
:102fd800023b032b00f20781dfe813f0ec00f50059
:102fe800fe001501e8000120d34d621098f80c305e
:102ff8001b09caeb830343440893524493b2049acf
:103008009a4228bf1a469246dbf81c10dbf81830a3
:103018008a18934259d25b1a01330493bdf8108081
:1030280001240094434608aa48462bf0eff805907f
:10303800aaeb080300949bb208aadbf814104846d0
:103048002bf0e4f8059a024490b2049baaeb030320
:10305800dbf814201344504586d1dbf8581051444e
:10306800cbf85810cbf81c309bf87620033ad2b234
:10307800022a98bf46f40076dbf85c20b2f1ff3fe5
:103088003ff472afa2eb0a0acbf85ca0bbf8682049
:1030980012eb0a0224d4baf1000f3ff765af1144ce
:1030a800cbf858101344cbf81c30dbf818209342a7
:1030b80006d9dbf81410521ad2431344cbf81c304b
:1030c8004ff0ff33cbf85c304ee7012300935346b3
:1030d80008aa48462bf09af8dbf81c305344bae7a4
:1030e8004ff0ff33cbf85c303ee70af1ff30dbf8f6
:1030f80014209b1ac01a01230093059b08aa0144b7
:1031080048462bf083f82be701230093059b08aa78
:10311800514448462bf07af822e7dbf85c30b3f1eb
:10312800ff3f15d09a4519d2059a02eb0a01bbf860
:103138006820d018814205d88b4203d8a0eb0a0337
:103148009bb20593059babf86830cbf85ca00be706
:10315800cbf85ca0059babf8683005e7bbf86820a6
:103168001a4405980146514491427ff6fdae9245b6
:103178003ff6faaeaaeb03031844abf86800f3e68f
:1031880001221021584609f0d5fa09e7dbb243f0cd
:1031980008038bf83e3033f051f9b14b1a686423b9
:1031a80003fb02f34ff47a72b3fbf2f30344cbf858
:1031b8002c30f5e609238bf8763001221121584688
:1031c80009f0b8fa2ae008238bf876309bf87530b6
:1031d80013f0010f07d021e0dbf854309f4208d0ec
:1031e80006238bf8763001221021584609f0a2fafe
:1031f80014e000221021584609f09cfa0021584694
:103208001df09cf90ae000221021584609f092fab4
:10321800002158461df092f900e00026bbf87a20fc
:10322800324000f08e81dbf87c40002c00f08b816e
:10323800dbf88030d9f82810bbf93c00a047022100
:1032480003e00026eae76ff00d010a22484632f053
:10325800d3f80a2034f036fb814600283ff49caab4
:10326800b9f82c60132eeed9d9f81c8098f80c30d8
:103278001b09042b0bd9b6eb830f0bdbd9f82030d5
:1032880013f400343ff490aa6ff00e01dde76ff0fd
:103298000d01dae76ff00d01d7e7724b1b68002bc1
:1032a8003ff47faa00252b46dff8bc91dff8bca1cc
:1032b800dff8b081e6e033f0c1f8a36ac01a00284d
:1032c800a8bf1026f4e033f0b9f8e36ac01a002862
:1032d800c0f2f48094f87630052b00f08a8110262d
:1032e80087f001023146204609f024faeee033f077
:1032f800a5f8236bc01a0028c0f2e580012214212a
:10330800204609f017fa002120461df017f9b1e010
:1033180094f83e6006f001060121204626f0d2ff0f
:1033280094f83e3043f0010384f83e304ff4805265
:10333800002120462ef0ccfb002e40f09b8094f814
:103348003e306ff3000384f83e300a2384f8763069
:1033580090e033f073f8636ac01a0028c0f28a80dc
:1033680094f876104b1e082b00f28280dfe803f0f9
:103378000541556080688080700094f87830032b90
:1033880040f22b81042384f87830354b1a684ff4c7
:103398007a7303fb02f3aafb03239b091b01236532
:1033a8000221002694f87830013384f87830236db0
:1033b8005b0023652069e268831a9bb2904204d2bd
:1033c80060682768c01b03449bb2606dc01a6065c3
:1033d800b4f864000344a4f8643022610022204653
:1033e80009f0a8f9002e45d0002120461df0a6f8c6
:1033f80040e094f87830022b40f2f18094f83e6077
:1034080006f001031e46002b18bf1421002fc9d156
:103418000122204609f08ef9e4e794f87830042b6d
:1034280040f2df80042384f8763011210026ede78e
:1034380094f87830042b40f2d68014210126e5e771
:1034480094f87830042b40f2d08014210126dde76f
:1034580094f87830042b40f2ca8014210126d5e76d
:10346800e8000120e4000120e0000120d34d6210b3
:10347800002e5ad101352db22b46d8f8002095429e
:10348800bff48fa9d9f8002052f82340002cf1d0be
:1034980094f876300b2bedd094f83e3013f0c0063c
:1034a8001abfdf091026002713f0040f7ff403afbb
:1034b80094f83e3013f0080f7ff405af94f8763097
:1034c800052b3ff414af002e7ff40aaf94f83e307a
:1034d80013f0020f7ff43daf94f83f3013f0400f24
:1034e800c8d094f87630032bc4d132f0a7ff636ab2
:1034f800c01a0028bedb94f8792094f884309a42e8
:103508003ff406af02221021204609f013f932f0e9
:1035180095ffb4f870203b4b1b6803fb02f3aafb32
:10352800032300eb93106062a4e7314600266de7a1
:103538006ff0090189e66ff00e0186e66ff00e0163
:1035480083e6022181e602217fe60135cbf8585057
:10355800b8f80e30abf86e30abf86430404625f062
:10356800d1faabf86a00584630f09dfb01221021d1
:10357800584609f0dff803238bf876309bf83f3084
:1035880013f0400f7ff499aa9bf83e306ff3410384
:103598008bf83e304ff4807640e60135cbf8585032
:1035a800b8f80e30abf86e30abf86430404625f012
:1035b800a9faabf86a00584630f075fb01221221cf
:1035c800584609f0b7f802238bf87630002625e62e
:1035d80014f0020fe1d1002620e60221e1e61221d3
:1035e800dfe61021dde61121dbe61021d9e6112105
:1035f800d7e632f023ff236bc01a0028bff67eae51
:0836080010266de6e800012028
:020000040000fa
:103610002de9f04f2ded028b9bb00f21212032f0d0
:103620000dfe002800f0b8867d4b1b68002b40f390
:10363000b3867c4c0026dff820929fed7b8ab9e3ad
:10364000d4f8c4305d6894f8d1202ab3227c012ad2
:1036500042d0022a61d1b4f93830b3f1ff3f25d00e
:103660000023724a4ff40071b4f9380032f0c4f903
:10367000d4f8bc200221b4f938001ff04dfa30b95b
:10368000d4f8c4301b681b6869492846984706214e
:1036900020462ef055f886e31b681b6865492846ce
:1036a0009847012120462ef04bf87ce304f180027c
:1036b000618a012026f05cff2087b0f1ff3fcfd167
:1036c000d4f8c4301b681b685b4928469847012121
:1036d00020462ef035f866e304f18002618a01206d
:1036e00035f057f8a087b0f1ff3f0ad00023534ac6
:1036f0004ff4807132f0e4fa032120462ef020f8d6
:1037000051e3d4f8c4301b681b684d4928469847dc
:10371000012120462ef014f845e31b681b68494937
:1037200028469847012120462ef00af83be3d4f8ba
:10373000c430d3f804b03b4be31adb1003ebc302f5
:1037400003eb4203c3eb432303eb8343c3f1000ac0
:1037500097e0d4f8c4301b681b683b49584698472b
:10376000042120462df0ecff1de3b4f93c0033f0ba
:10377000abf918e30133c4f89430284633f0b5f9b7
:1037800002460b46d4e9080114f0c3ffc4e908015e
:10379000002f19dba36ae26a511c8b4231d093429d
:1037a00020dc616b01f1010161632cd020e0d4f8d1
:1037b000c4301b685b68254958469847236b013b1a
:1037c000a26a1344236391e07f42a76232f03afe7b
:1037d000c4f88c00002384f8cc30042120462df05e
:1037e000afffd7e75b1a226b13442363a36ae3623c
:1037f0000c3dadb2002d44d0dff858804ff4c867bf
:1038000036e0934206d1d4f8c4301b681b681049d7
:1038100058469847a36ae26a9342e9dde7e700bfaa
:103820000001012098ef002000007a441d7c030075
:10383000b42301006c23010090230100077c0300e6
:10384000dc230100002401001824010038240100b9
:1038500064240100eccc0020e8f900203a464146ff
:10386000b4f93c0022f070faa5f5c865adb245b1d7
:10387000b5f5c86ff2d22a46d149b4f93c0022f01e
:1038800063fab4f93c0032f03dfd05460b2878d9c7
:103890000c224946b4f93c0022f056fa0c287ff479
:1038a00058afd9f800301f0e47ea03671a0202f436
:1038b0007f0217431b0a03f47f431f43a762d4f818
:1038c0009430002b7ff456af002ffff64eaf01234c
:1038d000c4f89430d4f8c4301b685b685246b949c8
:1038e00058469847a26a002a7ff461afa36ae36250
:1038f00005a9b4f93c0021f079fab4f93c0034f0a0
:1039000017fc33f0dffa069dd4f8c4301b68628ad6
:103910000292020e0192c0f3074200925f68c0f368
:103920000723c2b2a8495846b847d4f8c4301b6828
:10393000bdf8582002922a0e0192c5f30742009268
:103940005f68c5f30723eab2a0495846b8476564e3
:10395000bdf85830a4f8643032f074fdc4f8880023
:10396000c4f8a800a36ac4f89c30d4f89430c4f812
:103970009830236bc4f8a030b4f93c0033f0a4f8bd
:103980007fe7d4f894304bb994f8cf30012b40f056
:103990000a82042120462df0d3fe04e232f052fdcb
:1039a000d4f8a830c31a22689342edd9d4f89420f1
:1039b000d4f898309a4212d1d4f8c4301b681b68ee
:1039c00083495846984732f03dfdc4f88c000023e7
:1039d00084f8cc30042120462df0b2fed4e700213b
:1039e000204613f007fbcfe7b4f93c0032f08afc25
:1039f00038b994f8cf304bb1092120462df0a0fe04
:103a0000d1e1b4f93c0033f05ff8cce10521204668
:103a10002df096fec7e194f8cd30002b00f0bd806c
:103a2000b4f93c0032f06efc002840f0be8094f8ff
:103a3000cc305a1c84f8cc200a2b00f2bb808021a9
:103a4000b4f93c0034f0fafe002800f0ac81e36adf
:103a50005b421a0e42ea0362190201f47f010a4333
:103a60001b0a03f47f431343c9f800300025c9f84b
:103a70000450c9f808508023c9f80c30c9f8105018
:103a8000d4e9080132f086ff020e42ea0062030226
:103a900003f47f031a43030a03f47f431343c9f873
:103aa000143032f0e3fcd4f88c10d4f88830c91a02
:103ab000b1fbf0f31a0e42ea03621f0207f47f071c
:103ac0003a431f0a07f47f473a43c9f8182000fb1e
:103ad000131307ee103ab8ee477a27ee087a07ee8e
:103ae000900af8ee676ac7ee267a67ee887afceeef
:103af000e77a17ee903a1a0e42ea0362190201f4cd
:103b00007f010a431b0a03f47f431343c9f81c30a7
:103b1000236b1a0e42ea0362190201f47f010a4381
:103b20001b0a03f47f431343c9f82030636b1a0e5a
:103b300042ea0362190201f47f010a431b0a03f4fb
:103b40007f431343c9f82430e36a1a0e42ea036242
:103b5000190201f47f010a431b0a03f47f43134354
:103b6000c9f82830c9f82c50c9f8305034224946d9
:103b7000b4f93c002ef07cfd4c273a46294605a8b6
:103b800034f020fa3a4605a9b4f93c002ef070fd55
:103b9000b4f93c0014f09cfc05e10221204613f02e
:103ba00029fa012384f8cd303ae7b4f93c0032f029
:103bb0008bfff8e0092120462df0c2fdf3e000bfa5
:103bc000eccc00209c240100684802009c480200c4
:103bd0008424010094f8cf30012b26d0b4f93800aa
:103be00032f06dfd002800f0de803822002105a8ab
:103bf00034f0e8f905a9b4f938002af092fa04f192
:103c0000400705ad0fcd0fc70fcd0fc70fcd0fc7a5
:103c100095e8030087e80300072120462df090fd7a
:103c2000b4f9380032f040fabde0092120462df009
:103c300087fdb8e0d4f8c4305f68b4f9380034f0d8
:103c40002afa0546002865d0a36a002b49d1bd4b4e
:103c5000e31adb1003ebc30203eb4203c3eb432382
:103c600003eb8343d4f8c4201268d2f804805a428c
:103c7000b5493846c04732f0e5fbc4f88800c4f8bf
:103c8000a800a36ac4f89c30b4f9380034f058fa9c
:103c900033f018f9d4f8c4301b68628a0292020e1d
:103ca0000192c0f307420092d3f80480c0f30723c7
:103cb000c2b2a6493846c047d4f8c4301b68b4f82d
:103cc0006420029294f84720019294f846200092d2
:103cd000d3f8048094f8453094f844209c49384641
:103ce000c047a36a0133a362d4f894200132c4f818
:103cf0009420e362284632f0f8fe02460b46d4e9ef
:103d0000080114f006fdc4e90801dff848824ff409
:103d1000c8671ce0b4f9380032f0c6f920b9b4f92c
:103d2000380033f065ffd8b132f08cfbc4f88c005a
:103d3000082120462df004fd35e03a464146b4f90d
:103d4000380023f089f9a5f5c865adb245b1b5f5e0
:103d5000c86ff2d22a467f49b4f9380023f07cf9c3
:103d6000a36a63b994f8cf30012b1cd108212046f7
:103d70002df0e6fc32f066fbc4f88c0013e032f064
:103d800061fbd4f8a830c31a22689342ead9002113
:103d9000204613f02ff9e5e794f8cd30c3b309219d
:103da00020462df0cdfc0136d8346b4b1b68b34256
:103db00040f3f28294f8ce30012bf4d0023b102b6a
:103dc00000f2e58201a252f823f000bf4136000064
:103dd0002f370000e9390000173a0000d53b0000fa
:103de000353c0000993d0000213e0000bd3e000032
:103df000e93e0000d9400000bf41000043420000fe
:103e000069430000e93f0000d94200007f43000001
:103e10000221204613f0eef8012384f8cd30bee7ee
:103e2000d4f8c4305f68237c012b29d0022b2cd01e
:103e3000444be31adb1003ebc30203eb4203c3eb77
:103e4000432303eb83435d42d4f8c4301b685b68b3
:103e50002a4642493846984720462ef01dfa94f8e3
:103e6000d130012b19d0d4f8c4301b685b682a46c6
:103e70003b4938469847012120462df061fc92e7e6
:103e8000b4f93c002ef086fdd2e7b4f9380030f0ea
:103e90005bf84ff6ff732387cae794f8cf30002b07
:103ea000e1d1d4f8c4301b685b682a462d493846f6
:103eb0009847022120462df043fc74e7d4f8c8004f
:103ec00033f077fb032808d10b2120462df038fc76
:103ed00032f0b8fac4f8ac0065e704f14401d4f854
:103ee000c8002ff0b4f8efe7d4f8c4305d6894f858
:103ef000cf20012a17d0d4f8c80033f05afb03288a
:103f00001bd094f8443003f0f003e02b2ed1237c37
:103f1000012b64d0237c022b7ff445af0c2120467b
:103f20002df00efc3fe71b681b680f492846984799
:103f3000012120462df004fc35e70022a267a4f8f9
:103f40007c20e4e798ef00209c24010068480200f0
:103f50009c480200eccc002000010120c824010094
:103f60002c250100f82401004c25010004f1780201
:103f700004f14401d4f8c80027f0aeffb8b1d4f87a
:103f8000c4301b6894f87d20039294f87c20029240
:103f900094f87b20019294f87a2000925f6894f85c
:103fa000793094f87820bf492846b847afe732f017
:103fb00049fad4f8ac30c71a32f058fa00eb800056
:103fc00087427ff6f0aed4f8c4301b681b68b64950
:103fd0002846984732f036fac4f8ac00e3e61021e0
:103fe00020462df0adfb95e7d4f8c4305d6804f1b0
:103ff0004402618a012034f0d1fba087b0f1ff3f79
:104000005ed00023a94a4ff4807131f059fee26876
:104010000521b4f93c000df0b3fa30b9d4f8c4303e
:104020001b681b68a2492846984702220621b4f95a
:104030003c000df0a5fa30b9d4f8c4301b681b68f9
:104040009c4928469847d4f8c810b4f93c002bf096
:104050006aff05a9b4f93c0020f0c8febdf85a304b
:10406000a4f87e30d4f8c4301b681b6892492846f7
:104070009847d4f8c4301b68628a029294f84720ab
:10408000019294f8462000925f6894f8453094f8c5
:1040900044208a492846b847112120462df050fb7c
:1040a00032f0d0f9c4f88800d4f884300344c4f85e
:1040b00090304ff4c8625521814833f083ff72e697
:1040c000d4f8c4301b681b687e49284698470121f4
:1040d00020462df035fb66e6d4f8c4305d6800223a
:1040e000618a012033f0a6fa6087b0f1ff3f51d01a
:1040f0000023754a4ff4007131f07efcd4f8803013
:10410000002b53d104f1440300220121b4f93a00f9
:104110002df00bfd4ff48063a4f87e30d4f8c4304a
:104120001b681b68644928469847d4f8c4301b684c
:10413000628a029294f84720019294f846200092f5
:104140005f6894f8453094f8442060492846b847a1
:104150000d2120462df0f4fad4f8b8200321b4f94b
:104160003a001ef0d9fc30b9d4f8c4301b681b6883
:104170004f4928469847b4f93a0031f026fc32f00e
:1041800061f9c4f8ac004ff4c86254214c4833f0d4
:1041900019ff08e6d4f8c4301b681b684c49284650
:1041a0009847012120462df0cbfafce504f180036d
:1041b000628a0121b4f93a0023f06efca2e794f878
:1041c000cf30012b19d0d4f8c4305f68b4f93a006d
:1041d00032f075fab0b1b4f93a0031f065ff32f05f
:1041e00031f9c4f88800d4f884300344c4f890301e
:1041f0000e2120462df0a4fad5e50f2120462df002
:104200009ffad0e532f01ef9d4f8ac30c51a32f07e
:104210002df900eb800085427ff6c5adb4f93a0078
:104220002ff092fe4ff6ff736387d4f8c4301b68fb
:104230001b682849384698470f2120462df080fa00
:10424000b1e520460cf0defd01280bd002287ff4fa
:10425000aaad0f2120462df073fa32f0f3f8c4f81e
:104260008c00a0e5164f00bfb4f8b0508db1b5f585
:10427000c86f28bf4ff4c8652a463946b4f93a00da
:104280001af0b0feb4f8b0301b1aa4f8b030854272
:10429000ead9b4f93a0032f025fa204618f098f835
:1042a00081e500bfac2501006c250100077c0300ff
:1042b000d82501000026010054a401002826010091
:1042c000eccc0020dc2301001d7c030060260100f3
:1042d0009023010098260100227d0b21b4f93c00b7
:1042e0000df04ef920460cf08dfd01280bd0022870
:1042f0007ff459ad122120462df022fa32f0a2f8b7
:10430000c4f88c004fe5b4f8b05015b30027dff8bf
:1043100094a0a846b5f5c86f28bf4ff4c8684246b8
:104320005146b4f93c002ef0a3f90744bfb22d1a50
:10433000adb2804501d1002debd1b4f93c0014f0b1
:10434000c7f840b900221146b4f93c002ff090fca8
:1043500029e52f46f1e7b4f8b030df1ba4f8b070c0
:10436000204618f035f81ee520462af00ffbb4f978
:104370003a002ff0e9fd4ff6ff73638713e52046ff
:104380002af004fbb4f93c002ef004fb0be50121fc
:1043900020462df0d5f906e51bb0bdec028bbde83b
:0843a000f08f00bfeccc0020ff
:020000040000fa
:1043a8004531202854433120636f6d70617265294f
:1043b800000000004320285359535f54494d4520bd
:1043c80063616c6c6261636b290000006f6e20286a
:1043d8005345542f434c5229000000006f66662055
:1043e80028746f67676c6529000000006f6e000015
:1043f8006f66660000000000504332310000000084
:104408005041313600000000626c696e6b0000009c
:10441800465245450000000020203c2d2066697268
:10442800657320776974686f75742061207573618e
:10443800626c652074696d65626173652c204e4fee
:10444800542073796e6368726f6e697a65640000d0
:104458005354524943540000796573006e6f00004d
:104468006f6464202d207072652d6c6576656c20f4
:104478004c4f57004556454e202d207072652d6cc7
:104488006576656c20484947480000006e6f6e6588
:10449800000000006c6976650000000068656c64c7
:1044a8000000000057414e5445442c2068656c6458
:1044b80020627920736f6d656f6e6520656c73651a
:1044c800000000006e6f7420696e2075736500002f
:1044d8006772696420706172697479202873796ed3
:1044e80063656429000000004c4f43414c20544f41
:1044f80047474c4520286e6f206d617374657220a4
:104508007265666572656e63652900002d0000009e
:104518002b00000066697265000000005b54524978
:10452800475d206e6f2074696d65626173650d0a61
:10453800000000005b545249475d2073636865645e
:10454800756c652069643d257520696e20256c753c
:10455800206d733a2025730d0a000000627572738e
:10456800740000005b545249475d2063616e6e6fb2
:10457800742072656164206120706572696f6420bf
:1045880066726f6d20272573270d0a0020202020d2
:104598002020207462617365206275727374203cf8
:1045a80032307c32306d737c35303075733e203c50
:1045b8006e3e205b69645d0d0a0000005b54524941
:1045c800475d206e203d2030206d65616e7320753b
:1045d8006e6c696d69746564202d2075736520277c
:1045e8007462617365207065722720666f7220742b
:1045f8006861740d0a0000005b545249475d206ee3
:104608006f20757361626c652074696d6562617392
:1046180065202d2063616e6e6f7420636f6d7075f9
:10462800746520612073746172740d0a00000000c3
:104638005b545249475d2062757273742069643d0a
:104648002575206576657279200000002c20706839
:1046580061736520302c20256c752070756c73652e
:10466800732c0d0a2020202020202073746172747e
:1046780020256c6c752e2530396c6c7520732020c4
:1046880020656e6420256c6c752e2530396c6c7530
:1046980020733a2025730d0a00000000706572002f
:1046a80020202020202020746261736520706572ac
:1046b800203230207c2032306d73207c2035303021
:1046c80075732020202862617265206e756d6265a1
:1046d80072203d206d73290d0a0000005b54524979
:1046e800475d20706572696f6469632069643d2560
:1046f8007520657665727920000000002c207068ae
:1047080061736520303a2025730d0a0063616e637a
:10471800656c00005b545249475d2063616e6365b8
:104728006c6c65640d0a00006877000031000000b9
:104738005b545249475d206261636b656e643a2041
:1047480025730d0a0000000070756c736500000089
:104758005b545249475d2064757479206d75737494
:1047680020626520312e2e3939202525202d2072f2
:104778006566757365640d0a000000005b54524954
:10478800475d2070756c73653a202573202020647e
:104798007574792061736b65643a20256c752025e2
:1047a80025202020636c616d7065643a20256c7546
:1047b8000d0a00005b545249475d206163686965d2
:1047c8007665643a20706572696f6420256c75207f
:1047d8007469636b732028256c75206e73292020fb
:1047e800206869676820256c75207469636b73207d
:1047f80028256c75206e7329202020647574792013
:10480800256c752e2530326c752025250d0a000083
:104818005b545249475d2061636869657665643a0f
:10482800206e6f20706572696f642061726d6564b7
:10483800207965740d0a00005b545249475d206d6c
:1048480063303a20256c752020206d63313a20258d
:104858006c752020207761746368646f673a20253f
:104868006c752020206f6e652d73686f74207374cb
:104878006f70733a20256c752020205359535f546c
:10488800494d4520726570616972733a20256c75cf
:1048980020286c61737420256c75207469636b73b0
:1048a80029202020667265652d72756e2073746fdd
:1048b800707065643a20256c752020204f4e455352
:1048c800484f5420736b69707065643a20256c7585
:1048d8000d0a00005b545249475d2062757273747b
:1048e80020646f6e653a20256c75202020656e6403
:1048f8003a20756e6c696d697465640d0a00000074
:104908005b545249475d20627572737420646f6e00
:10491800653a20256c75202020656e643a20256c48
:104928006c752e2530396c6c7520730d0a000000eb
:1049380070696e005b545249475d20504431302005
:10494800746f67676c653a2025730d0a00000000d4
:104958006c6564005b4c45445d206e6f204c45449b
:104968002025752c206f6e6c792031202850433219
:10497800312920616e642032202850413136290dba
:104988000a000000300000005b4c45445d20756e55
:104998006b6e6f776e20272573270d0a7573616715
:1049a800653a207462617365206c6564206f6e7c63
:1049b8006f66667c626c696e6b205b317c325d0d64
:1049c8000a0000005b4c45445d204c454425752099
:1049d8002825732c2070696e202575293a202573a7
:1049e8000d0a00005b4c45445d2070696e202575fa
:1049f8002069732068656c642062792027257327f5
:104a08000d0a000070696e730000000065700000f8
:104a18006f666665720000006c6f67005b45505ded
:104a2800206672616d65206c6f673a2025730d0ae8
:104a380000000000736c6577000000005b54524969
:104a4800475d20736c6577203c646976696465729c
:104a580020382e2e313030303030303e2020207338
:104a6800746570203d20706572696f642f64697683
:104a78006964657220706572206772696420706f5e
:104a8800696e740d0a0000005b545249475d20733b
:104a98006c65773a20706572696f642f256c752094
:104aa800706572206772696420706f696e740000a7
:104ab80020202068616c6620706572696f642069c7
:104ac8006e20256c752073000d0a00006d6f6465fb
:104ad8000000000066726565000000005b545249e2
:104ae800475d206d6f64653a20257325730d0a00b4
:104af80074726967000000005b545249475d206288
:104b080061636b656e643a20257320202050443120
:104b1800303a2025730d0a005b545249475d2061e5
:104b2800726d65643a2025732020206d6f64653aa4
:104b3800202573202020616374696f6e3a202575e3
:104b4800202020706572696f643a20005b545249d6
:104b5800475d2066697265643a20256c75202020bf
:104b6800726566757365643a20256c75202020731c
:104b78006b697070656420706572696f64733a2040
:104b8800256c75202020726561726d206c6f7374be
:104b98003a20256c750d0a005b545249475d207315
:104ba80074616c6c73207265636f766572656420de
:104bb8006279207761746368646f673a20256c7541
:104bc80020202073746f7070656420627920686f8c
:104bd8006c646f7665723a20256c750d0a000000ca
:104be8005b545249475d206d61737465722073741c
:104bf8006172743a2074616b656e20256c75202093
:104c0800207061737420256c752020206f66662dd6
:104c18006772696420256c75202020616273656e57
:104c28007420256c752020206c6f63616c2070687f
:104c380061736520256c750d0a0000005b545249ac
:104c4800475d206c6172676520736b6970733a20e9
:104c5800256c752020202862756666657220736849
:104c68006f777320746865206c61737420256c7588
:104c7800290d0a005b545249475d2020206e2020f0
:104c8800706572696f647320202064287469636b8f
:104c98002920202020202064286e7329202020200d
:104ca800202020206e6f775f6e73202d206e657830
:104cb800745f6265666f72650d0a00005b54524945
:104cc800475d202025326c75202025386c75202002
:104cd8002531306c6c6420202531316c6c642020c7
:104ce8002531346c6c640d0a000000005b54524995
:104cf800475d206564676573207768696c65206126
:104d0800726d696e6720286f7574736964652074a5
:104d180068652067726964293a20256c752020200f
:104d28006669727374206772696420696e64657855
:104d380020256c6c7520282573290d0a00000000b9
:104d48005b545249475d206c6576656c20636f72d1
:104d58007265637465642061667465722072652d7e
:104d680064657269766174696f6e3a20256c750d99
:104d78000a0000005b545249475d20636f756e74ea
:104d88006572206d697372656164733a20256c756c
:104d98002020206c61737420256c642020206d69ac
:104da8006e20256c642020206d617820256c64209d
:104db8007469636b732020283332373638203d20de
:104dc80068616c66207468652031362d62697420cc
:104dd80077726170290d0a005b545249475d206f54
:104de80075746167657320287472696767657220d6
:104df800646964206e6f742072756e293a20256c80
:104e0800752020206c6f6e6765737420256c642094
:104e18006d730d0a000000005b545249475d206322
:104e28006861696e3a207374616765323d25732045
:104e38002068775f70656e64696e673d2573202012
:104e480073797374696d655f74696d65723d2573f7
:104e580020207461726765742d6e6f773d256c64d0
:104e6800207469636b732028256c64207573290d81
:104e78000a0000005b545249475d205354414c4c92
:104e880045443a2061726d656420627574207468c7
:104e98006520696e7374616e7420697320256c6473
:104ea80020757320676f6e650d0a00005b545249c8
:104eb800475d206c6174656e657373206f766572eb
:104ec80020256c752066697265732c207469636b84
:104ed800732028256c64207469636b73203d20312e
:104ee800207573293a0d0a005b545249475d20200a
:104ef800206c61737420256c642028256c64206ef6
:104f080073292020206d696e20256c642028256c6b
:104f180064206e73292020206d617820256c642020
:104f280028256c64206e73290d0a00005b545249d1
:104f3800475d2020206d65616e207c6c6174657c06
:104f480020256c6c75207469636b732028256c6c44
:104f580075206e73290d0a005b545249475d206421
:104f6800656d6f20616374696f6e203120286973e5
:104f7800722920686974733a20256c750d0a00003f
:104f88005b545249475d20616374696f6e202575d3
:104f9800202867726964204c454431292068697467
:104fa800733a20256c752020204c4544313a202541
:104fb80073202020627573793a20256c750d0a00dc
:104fc8005b545249475d20202070686173652066f4
:104fd800726f6d3a202573202020666972657320f0
:104fe800776974686f757420677269642072656682
:104ff8006572656e63653a20256c750d0a000000c0
:105008005b545249475d2067726964207068617318
:10501800653a20256c6c75206e73202020736c65b2
:105028007720646562743a202573256c6c75207549
:10503800732020207261746520706572696f642f17
:10504800256c7520202072756e7320256c752020c4
:1050580020646f6e6520256c750d0a005b545249fb
:10506800475d2020206c6173742073746172742012
:10507800617420256c6c75207573206f66206465db
:1050880062740d0a000000005b545249475d2020fd
:10509800207068617365206269743a202575202044
:1050a80020746f67676c65732073696e636520731e
:1050b800746f703a20256c752020206c6173742001
:1050c8006772696420706f696e743a20256c6c751c
:0c50d8002e2530396c6c7520730d0a0019
:020000040000fa
:1050e4006f6666006f6e000054433320636f756e05
:1050f40074696e6700000000544333204e4f5420ff
:1051040073657420757000004f4e00002020202825
:10511400646961676e6f73746963206d6f64652081
:105124002d207768696c652069742072756e732c04
:10513400205448495320626f61726427732063725c
:105144006f73732d6d6561737572656d656e742013
:105154006973206e6f74206d65616e696e67667524
:105164006c2900006f6b00004641494c45442028df
:105174006e6f2074776f2073616d706c657320633c
:105184006c6f736520746f676574686572290000bd
:105194002028737562747261637465642900000069
:1051a4002020445754204f4646202d20676170200c
:1051b4004e4f5420737562747261637465640000a9
:1051c400757000004e4f5420534554205550000034
:1051d400636f756e7420636865636b3a20607065f5
:1051e400657220636f756e74207265736574602ccc
:1051f400206e65696768626f75722060706565729c
:105204002067656e203c6e3e6000000063616c693f
:1052140062726174656400004e4f542063616c696e
:10522400627261746564000070726573656e740007
:105234004d495353494e4720286e6f7468696e6711
:105244002061726d6564290070656572000000005c
:10525400736563005b504545525d206361707475ee
:1052640072653a2025730d0a0000000072657365ab
:10527400740000005b504545525d2073746174698d
:10528400737469637320636c656172656420286359
:10529400616c6962726174696f6e206b65707429e8
:1052a4000d0a0000636f756e740000005b50454585
:1052b400525d206576656e7420636f756e746572d9
:1052c400207a65726f656420287261772073746137
:1052d4007465202575290d0a000000005b504545c2
:1052e400525d206576656e74732073696e63652004
:1052f4007265666572656e63653a202575202020a7
:105304007261772073746174652025752020206391
:105314006861696e3a2025730d0a00005b504545ab
:10532400525d20636f756e74657220697320313627
:1053340020626974202d20612073616d706c65207a
:105344006f66206d6f7265207468616e2036353526
:105354003335206576656e7473206973206e6f74bf
:1053640020756e616d626967756f75732e0d0a0025
:105374006d6972726f7200005b504545525d20503a
:105384004431302069732068656c64206279202779
:10539400257327202d206074626173652070696e07
:1053a400206f6666602066697273742e0d0a0000b1
:1053b4005b504545525d20455854494e542575204f
:1053c40063616e6e6f742062652073657420746f00
:1053d40020626f7468206564676573202d206d6991
:1053e40072726f72696e67204e4f5420656e6162ef
:1053f4006c65642e0d0a00005b504545525d206dbe
:105404006972726f722050443131202d3e20504415
:1054140031303a20257325730d0a00005b50454551
:10542400525d206d6972726f723a202573202020bc
:105434006d6972726f7265642065646765733a2082
:10544400256c750d0a0000005b504545525d2060d7
:1054540074626173652070656572206d6972726f24
:1054640072206f6e60206e65656473206074626183
:1054740073652070696e206f66666020666972735a
:10548400742e20204d656173757265642066726f99
:105494006d206f7574736964653a207374696d75f2
:1054a4006c7573206f6e20746865206e656967681b
:1054b400626f75722773206368616e6e656c2c0d64
:1054c4000a5b504545525d20726573706f6e73655b
:1054d400206f6e20746865206f776e206f6e652074
:1054e4002d2074686520646966666572656e6365ff
:1054f40020697320746865206c6174656e6379201b
:1055040066726f6d206564676520746f204953521d
:1055140020656e7472792e0d0a00000067656e00b6
:105524005b504545525d206e206d75737420626535
:1055340020312e2e2575202874686520666172201e
:1055440073696465277320636f756e74657220696f
:105554007320313620626974290d0a005b50454579
:10556400525d2073706163696e67206174206c659d
:10557400617374202575207573202d2073686f72f4
:10558400746572206973206e6f742063617272692e
:105594006564206279207468652077726974652077
:1055a400697473656c660d0a000000005b50454524
:1055b400525d2073656e64696e6720256c7520707a
:1055c400756c73657320256c75207573206170612b
:1055d4007274206f6e20504431302028626c6f63e7
:1055e4006b7320256c75206d73290d0a0000000073
:1055f4005b504545525d20746865206379636c6532
:1056040020636f756e74657220284457542920698d
:1056140073206e6f742072756e6e696e67202d2014
:10562400776974686f75742069742074686572652d
:10563400206973206e6f2074696d652062617365e3
:1056440020666f72207468652070756c73652077ae
:10565400696474682e0d0a005b504545525d205004
:105664004431302069732068656c64206279202796
:10567400257327202d206074626173652070696e24
:10568400206f6666602066697273742c2074686586
:105694006e2072657472792e0d0a00005b504545c8
:1056a400525d2073656e743a20256c75207269739f
:1056b400696e672065646765730d0a0063616c0039
:1056c4005b504545525d20726563616c696272612d
:1056d4007465643a20257320202064656c746133fa
:1056e40032203d2030782530386c580d0a000000f7
:1056f4005b504545525d202020256c75206f662047
:1057040025752073616d706c6573206b6570742ce6
:105714002073707265616420256c75207469636bf5
:10572400732c20256c7520646973636172646564ed
:105734002020207265616420676170206d6178208b
:10574400256c75206379636c657325730d0a0000fd
:105754005b5345435d206f776e20677269642061f7
:105764006761696e737420746865206f776e207347
:1057740065636f6e642028315050532c206e6f2067
:105784007769726520696e766f6c766564290d0a97
:10579400000000005b5345435d207365636f6e64d6
:1057a40020656467657320736f206661723a2025f3
:1057b4006c750d0a00000000534543005b534543dc
:1057c4005d204974206e6565647320424f54483ae5
:1057d40020616e2061726d6564206772696420289f
:1057e400747269677065722920616e6420656467ec
:1057f4006573206f6e2050433132202874626173c8
:105804006520707073292e0d0a0000005b53454318
:105814005d2054686973206e756d626572207465cd
:105824006c6c7320796f7520574849434820626f28
:1058340061726420686173206d6f766564202d2029
:105844007468652063726f73732d6d65617375720f
:10585400656d656e742063616e6e6f742e0d0a0043
:105864005b504545525d20696e707574205044311b
:10587400312028455854312070696e20362c20453b
:105884005854494e543629202020636861696e3a81
:10589400202573202020636170747572653a202579
:1058a400730d0a005b504545525d206576656e7444
:1058b4007320696e205443333a2025752028736978
:1058c4006e6365207265666572656e636529202066
:1058d4002025730d0a0000005b504545525d20638e
:1058e400617074757265733a20256c75202020648c
:1058f40069736361726465642c206e6f20677269da
:10590400642061726d65643a20256c7520202065e1
:1059140072726174612072652d72656164733a20dc
:10592400256c7520286d617820256c75206c6f6f4f
:105934007073290d0a0000005b504545525d2064d8
:10594400656c74613332203d2030782530386c58d2
:1059540020202825732c20256c752f257520736134
:105964006d706c65732c2073707265616420256c96
:1059740075207469636b732c20256c752077696cb2
:10598400642c20726561642067617020256c752029
:105994006379636c65732073756274726163746593
:1059a40064292020206772696420726566657265c7
:1059b4006e63653a2025730d0a0000005045455278
:1059c400000000005b504545525d204e4f20454489
:1059d40047452e20204361626c6520746865206e03
:1059e40065696768626f7572277320455854312062
:1059f40070696e203520746f2070696e20362068bf
:105a04006572652c2067726f756e6420636f6e6ead
:105a140065637465642c20616e6420746865206e0f
:105a240065696768626f75720d0a5b504545525d22
:105a3400206d7573742062652064726976696e677f
:105a440020612067726964202874726967706572c6
:105a5400292e2020436865636b20776974686f750d
:105a640074206669726d776172653a207079746822
:105a74006f6e20736372697074732f746573745fcf
:105a8400706565725f776972696e672e70790d0a49
